{
  "transactions": [
    {
      "hash": "0x440b6e3509fe8391d5d2d837b87ab0e4821d10e1824015af44632872957c1aca",
      "transactionType": "CREATE2",
      "contractName": "Hook",
      "contractAddress": "0x71de7ff95ab22f5fce069330f867efc9893b80c0",
      "function": null,
      "arguments": [
        "0x8C4BcBE6b9eF47855f97E675296FA3F6fafa5F1A",
        "0x8fF7d450FA8Af49e386d162D80295606ef881a16"
      ],
      "transaction": {
        "from": "0x5c89102bcbf5fa85f9aec152b0a3ef89634decb5",
        "to": "0x4e59b44847b379578588920ca78fbf26c0b4956c",
        "gas": "0x1697eb",
        "value": "0x0",
        "input": "0x0000000000000000000000000000000000000000000000000000000000001f4f60a034620002ba57620013a890601f38839003908101601f19168201906001600160401b03821183831017620002be5780839160409586948552833981010312620002ba5780516001600160a01b03918282168203620002ba5760200151918216809203620002ba5760805262000075620002d2565b5f81525f60208201525f838201525f60608201525f60808201525f60a08201525f60c08201525f60e08201525f6101009181838201528482610120818185015281610140818187015281610160918183890152816101809581878b0152816101a0809b015281620000e5620002d2565b99818b528160208c01528a01528160608a01528160808a01528160a08a0152600160c08a0152600160e08a0152818c8a0152880152860152840152820152015261200030161590811591620002ab575b81156200029c575b81156200028d575b81156200027e575b811562000271575b50801562000260575b801562000250575b801562000243575b801562000236575b801562000229575b80156200021c575b80156200020f575b801562000202575b620001ef575f80546001600160a01b031916919091179055516110b49081620002f482396080518181816101120152818161039501528181610b0101528181610b6501528181610bb801528181610c0a0152610c560152f35b630732d7b560e51b5f523060045260245ffd5b5060013016151562000196565b506002301615156200018e565b5060043016151562000186565b506008301615156200017e565b5060103016151562000176565b506020301615156200016e565b5081301615156001141562000166565b50608030161515600114156200015e565b9050301615155f62000155565b3061020016151591506200014d565b30610400161515915062000145565b3061080016151591506200013d565b30611000161515915062000135565b5f80fd5b634e487b7160e01b5f52604160045260245ffd5b604051906101c082016001600160401b03811183821017620002be5760405256fe6080604052600480361015610012575f80fd5b5f3560e01c90816321d0ee70146104c35781632324c589146104c8578163259982e5146104c3578163575e24b4146104425781636c2bbe7e1461035f5781636fe7e6eb146103f757816391dd7346146103645781639f063efc1461035f578163b47b2fb1146102cb578163b6a8b0fa146100b6578163c4e833ce14610141578163dc4c90d3146100fd578163dc98354e146100bb575063e1b4af69146100b6575f80fd5b610652565b346100f95760e03660031901126100f9576100d46104ef565b5060a03660231901126100f9576100e96105fe565b50604051630a85dc2960e01b8152fd5b5f80fd5b346100f9575f3660031901126100f9576040517f00000000000000000000000000000000000000000000000000000000000000006001600160a01b03168152602090f35b346100f9575f3660031901126100f9575f6101a0604051610161816106a2565b8281528260208201528260408201528260608201528260808201528260a08201528260c08201528260e0820152826101008201528261012082015282610140820152826101608201528261018082015201526101c06040516101c2816106a2565b5f81525f60208201525f60408201525f60608201525f60808201525f60a0820152600160c0820152600160e08201525f6101008201525f6101208201525f6101408201525f6101608201525f6101808201525f6101a08201526101a0604051915f835260208101511515602084015260408101511515604084015260608101511515606084015260808101511515608084015260a0810151151560a084015260c0810151151560c084015260e0810151151560e084015261010081015115156101008401526101208101511515610120840152610140810151151561014084015261016081015115156101608401526101808101511515610180840152015115156101a0820152f35b346100f9576101603660031901126100f9576102e56104ef565b5060a03660231901126100f95760603660c31901126100f95761014435906001600160401b0382116100f95761031d91369101610505565b505061034960405161032e816106e5565b600981526806166746572537761760bc1b6020820152610d6d565b6040805163b47b2fb160e01b81525f6020820152f35b6105a2565b346100f95760203660031901126100f95780356001600160401b0381116100f9576103929036908301610505565b917f00000000000000000000000000000000000000000000000000000000000000006001600160a01b031633036103e8576103e46103d08484610fff565b604051918291602083526020830190610614565b0390f35b60405163570c108560e11b8152fd5b346100f9576101003660031901126100f9576104116104ef565b5060a03660231901126100f9576104266105fe565b5060e4358060020b036100f957604051630a85dc2960e01b8152fd5b346100f9576101403660031901126100f95761045c6104ef565b5060a03660231901126100f95760603660c31901126100f957610124356001600160401b0381116100f9576104a361049d60609362ffffff93369101610505565b9061075d565b906040939293519363ffffffff60e01b1684526020840152166040820152f35b610532565b346100f9575f3660031901126100f9575f546040516001600160a01b039091168152602090f35b600435906001600160a01b03821682036100f957565b9181601f840112156100f9578235916001600160401b0383116100f957602083818601950101116100f957565b346100f9576101603660031901126100f9576004356001600160a01b038116036100f95760a03660231901126100f95760803660c31901126100f957610144356001600160401b0381116100f95761058e903690600401610505565b5050604051630a85dc2960e01b8152600490fd5b346100f9576101a03660031901126100f9576004356001600160a01b038116036100f95760a03660231901126100f95760803660c31901126100f957610184356001600160401b0381116100f95761058e903690600401610505565b60c435906001600160a01b03821682036100f957565b91908251928382525f5b84811061063e575050825f602080949584010152601f8019910116010190565b60208183018101518483018201520161061e565b346100f9576101203660031901126100f9576004356001600160a01b038116036100f95760a03660231901126100f957610104356001600160401b0381116100f95761058e903690600401610505565b6101c081019081106001600160401b038211176106be57604052565b634e487b7160e01b5f52604160045260245ffd5b6001600160401b0381116106be57604052565b604081019081106001600160401b038211176106be57604052565b90601f801991011681019081106001600160401b038211176106be57604052565b908160209103126100f9575180151581036100f95790565b600160ff1b8114610749575f0390565b634e487b7160e01b5f52601160045260245ffd5b91908260409161078d8351610771816106e5565b600a81526906265666f7265537761760b41b6020820152610d6d565b810103126100f95760208201356001600160a01b03811681036100f957823515610d5c576044356001600160a01b03811681036100f9576024356001600160a01b03811690036100f95760c43580151581036100f9576107fa575b506315d7892d60e21b92505f91829150565b610831604051610809816106e5565b601681527505357415020544f4b454e3120464f5220544f4b454e360541b6020820152610d6d565b5f9360e43566853a0d2313c00080820190878312801591831291821691151617610749576040516323b872dd60e01b81526001600160a01b03861660048201523060248201526044810191909152602081806064810103815f6001600160a01b0389165af18015610cbb57610d3d575b505f805460405163095ea7b360e01b81526001600160a01b0391821660048201525f196024820181905290929091602091849160449183918a165af1918215610cbb57602092610d20575b505f8054604051634e5c85d360e11b81526001600160a01b0389811660048301819052602483018590526044830197909752873560648301526084820184905260a4820184905266b1a2bc2ec5000060c483015260e48201949094526101048101869052610124810186905261014481019590955284926101649284929091165af18015610cbb57610cf5575b5060405163a9059cbb60e01b81526001600160a01b038416600482015281356024820152602081806044810103815f6024356001600160a01b03165af18015610cbb57610cc6575b50604051908160608101106001600160401b036060840111176106be57606082016040525f825235602082015273fffd8963efd1fc6a506488495d951d5263988d256040820152604051905f602083015260018060a01b0384166040830152604082528160608101106001600160401b036060840111176106be57606082016040819052633cf3645360e21b90526001600160a01b03602435811660648085019190915290841660848401523562ffffff8116908190036100f95760a48301526084358060020b8091036100f95760c483015260a4356001600160a01b038116908190036100f95760e4830152805115156101048301526020808201516101248401526040909101516001600160a01b031661014483015261012061016483015260608201605f1983610af8610184820182610614565b0301606084015f7f00000000000000000000000000000000000000000000000000000000000000006001600160a01b03165af1908115610cbb575f91610c83575b508060801d600f0b945f86125f14610c375750610b8c610b595f96610739565b6001600160a01b0385167f0000000000000000000000000000000000000000000000000000000000000000602435610e15565b600f0b9380851215610be85780610be55750610bab610bdd9394610739565b916001600160a01b0316907f000000000000000000000000000000000000000000000000000000000000000090610e15565b805f806107e8565b80fd5b8492939413610bfa575b505050610bdd565b610c2f926001600160a01b0316907f000000000000000000000000000000000000000000000000000000000000000090610dbb565b5f8080610bf2565b945f8113610c46575b50610b8c565b610c7d906001600160a01b0385167f0000000000000000000000000000000000000000000000000000000000000000602435610dbb565b5f610c40565b90506020813d602011610cb3575b81610ca160209360608401610700565b810103126100f957606001515f610b39565b3d9150610c91565b6040513d5f823e3d90fd5b610ce79060203d602011610cee575b610cdf8183610700565b810190610721565b505f6109c1565b503d610cd5565b602090813d8311610d19575b610d0b8183610700565b810103126100f9575f610979565b503d610d01565b610d3690833d8511610cee57610cdf8183610700565b505f6108ec565b610d559060203d602011610cee57610cdf8183610700565b505f6108a1565b506315d7892d60e21b91505f908190565b5f8091604051610da881610d9a602082019463104c13eb60e21b8652602060248401526044830190610614565b03601f198101835282610700565b51906a636f6e736f6c652e6c6f675afa50565b9192916001600160a01b0391821690813b156100f9575f6064928195856040519889978896630b0d9c0960e01b885216600487015216602485015260448401525af18015610cbb57610e0a5750565b610e13906106d2565b565b5f926001600160a01b039291831680610e875750509060046020926040519586938492630476982d60e21b8452165af1908115610e7b5750610e545750565b602090813d8311610e74575b610e6a8183610700565b810103126100f957565b503d610e60565b604051903d90823e3d90fd5b9092809495921692833b156100f9576040948551632961046560e21b81528360048201525f81602481838a5af18015610ff557610fdb575b5086939291859181163014610f735786516323b872dd60e01b81526001600160a01b039182166004820152911660248201526044810192909252909160209183916064918391905af18015610f6657916020918593610f49575b505b6004845180968193630476982d60e21b83525af1918215610f3f575050610e545750565b51903d90823e3d90fd5b610f5f90833d8511610cee57610cdf8183610700565b505f610f19565b50505051903d90823e3d90fd5b5050845163a9059cbb60e01b81526001600160a01b03851660048201526024810192909252909160209183916044918391905af18015610f6657916020918593610fbe575b50610f1b565b610fd490833d8511610cee57610cdf8183610700565b505f610fb8565b610fe99194939297506106d2565b835f9691929390610ebf565b87513d5f823e3d90fd5b5f9182918160405192839283378101838152039082305af1903d15611076573d916001600160401b0383116106be5760405192611046601f8201601f191660200185610700565b83523d5f602085013e5b610e13575080511561106457602081519101fd5b6040516314815f4760e31b8152600490fd5b60609161105056fea2646970667358221220ac55bf071ad98cf41b56b474d6067e39f815dc5cb1fa44a2c44445043d6839a664736f6c634300081800330000000000000000000000008c4bcbe6b9ef47855f97e675296fa3f6fafa5f1a0000000000000000000000008ff7d450fa8af49e386d162d80295606ef881a16",
        "nonce": "0x0",
        "chainId": "0xaa36a7"
      },
      "additionalContracts": [],
      "isFixedGasLimit": false
    },
    {
      "hash": "0xb7c3c28d15ba499412de8ca11ece3e51a0ff1e5c7c3a6a4870e18ecf1b6fb907",
      "transactionType": "CALL",
      "contractName": null,
      "contractAddress": "0xbcddc15adbe087a75526c0b7273fcdd27be9dd18",
      "function": "approve(address,uint256)",
      "arguments": [
        "0x000000000022D473030F116dDEE9F6B43aC78BA3",
        "115792089237316195423570985008687907853269984665640564039457584007913129639935"
      ],
      "transaction": {
        "from": "0x5c89102bcbf5fa85f9aec152b0a3ef89634decb5",
        "to": "0xbcddc15adbe087a75526c0b7273fcdd27be9dd18",
        "gas": "0xfb10",
        "value": "0x0",
        "input": "0x095ea7b3000000000000000000000000000000000022d473030f116ddee9f6b43ac78ba3ffffffffffffffffffffffffffffffffffffffffffffffffffffffffffffffff",
        "nonce": "0x1",
        "chainId": "0xaa36a7"
      },
      "additionalContracts": [],
      "isFixedGasLimit": false
    },
    {
      "hash": "0x12a14f51e2f5f0e21004acdfba8c064248c1f97bbdaccb26931a9c03aef6fa19",
      "transactionType": "CALL",
      "contractName": null,
      "contractAddress": "0x000000000022d473030f116ddee9f6b43ac78ba3",
      "function": "approve(address,address,uint160,uint48)",
      "arguments": [
        "0xbCDdC15adbe087A75526C0b7273Fcdd27bE9dD18",
        "0x1B1C77B606d13b09C84d1c7394B96b147bC03147",
        "1461501637330902918203684832716283019655932542975",
        "281474976710655"
      ],
      "transaction": {
        "from": "0x5c89102bcbf5fa85f9aec152b0a3ef89634decb5",
        "to": "0x000000000022d473030f116ddee9f6b43ac78ba3",
        "gas": "0x1112d",
        "value": "0x0",
        "input": "0x87517c45000000000000000000000000bcddc15adbe087a75526c0b7273fcdd27be9dd180000000000000000000000001b1c77b606d13b09c84d1c7394b96b147bc03147000000000000000000000000ffffffffffffffffffffffffffffffffffffffff0000000000000000000000000000000000000000000000000000ffffffffffff",
        "nonce": "0x2",
        "chainId": "0xaa36a7"
      },
      "additionalContracts": [],
      "isFixedGasLimit": false
    },
    {
      "hash": "0xce94ee446453e5515045b5f0fc79ac21f0dc3245fa2d02516cee6a3d2d8ff7fe",
      "transactionType": "CALL",
      "contractName": null,
      "contractAddress": "0x3ef4a137b3470f0b8ffe6391edb72d78a3ac1e63",
      "function": "approve(address,uint256)",
      "arguments": [
        "0x000000000022D473030F116dDEE9F6B43aC78BA3",
        "115792089237316195423570985008687907853269984665640564039457584007913129639935"
      ],
      "transaction": {
        "from": "0x5c89102bcbf5fa85f9aec152b0a3ef89634decb5",
        "to": "0x3ef4a137b3470f0b8ffe6391edb72d78a3ac1e63",
        "gas": "0x109f3",
        "value": "0x0",
        "input": "0x095ea7b3000000000000000000000000000000000022d473030f116ddee9f6b43ac78ba3ffffffffffffffffffffffffffffffffffffffffffffffffffffffffffffffff",
        "nonce": "0x3",
        "chainId": "0xaa36a7"
      },
      "additionalContracts": [],
      "isFixedGasLimit": false
    },
    {
      "hash": "0x5f7249167c4532ab384fa10460296162dde86c9447846d566ccd2286c8d25d8d",
      "transactionType": "CALL",
      "contractName": null,
      "contractAddress": "0x000000000022d473030f116ddee9f6b43ac78ba3",
      "function": "approve(address,address,uint160,uint48)",
      "arguments": [
        "0x3EF4A137b3470f0B8fFe6391eDb72d78a3Ac1E63",
        "0x1B1C77B606d13b09C84d1c7394B96b147bC03147",
        "1461501637330902918203684832716283019655932542975",
        "281474976710655"
      ],
      "transaction": {
        "from": "0x5c89102bcbf5fa85f9aec152b0a3ef89634decb5",
        "to": "0x000000000022d473030f116ddee9f6b43ac78ba3",
        "gas": "0x1112d",
        "value": "0x0",
        "input": "0x87517c450000000000000000000000003ef4a137b3470f0b8ffe6391edb72d78a3ac1e630000000000000000000000001b1c77b606d13b09c84d1c7394b96b147bc03147000000000000000000000000ffffffffffffffffffffffffffffffffffffffff0000000000000000000000000000000000000000000000000000ffffffffffff",
        "nonce": "0x4",
        "chainId": "0xaa36a7"
      },
      "additionalContracts": [],
      "isFixedGasLimit": false
    },
    {
      "hash": "0x69b2ebcae53189e95d070863fe04ce1b9e9e119cca17c1ccbafabf663a2fb655",
      "transactionType": "CALL",
      "contractName": null,
      "contractAddress": "0x1b1c77b606d13b09c84d1c7394b96b147bc03147",
      "function": "initializePool((address,address,uint24,int24,address),uint160)",
      "arguments": [
        "(0x3EF4A137b3470f0B8fFe6391eDb72d78a3Ac1E63, 0xbCDdC15adbe087A75526C0b7273Fcdd27bE9dD18, 3000, 60, 0x71dE7Ff95ab22f5fce069330F867EFC9893b80c0)",
        "79228162514264337593543950336"
      ],
      "transaction": {
        "from": "0x5c89102bcbf5fa85f9aec152b0a3ef89634decb5",
        "to": "0x1b1c77b606d13b09c84d1c7394b96b147bc03147",
        "gas": "0x12f38",
        "value": "0x0",
        "input": "0xf70204050000000000000000000000003ef4a137b3470f0b8ffe6391edb72d78a3ac1e63000000000000000000000000bcddc15adbe087a75526c0b7273fcdd27be9dd180000000000000000000000000000000000000000000000000000000000000bb8000000000000000000000000000000000000000000000000000000000000003c00000000000000000000000071de7ff95ab22f5fce069330f867efc9893b80c00000000000000000000000000000000000000001000000000000000000000000",
        "nonce": "0x5",
        "chainId": "0xaa36a7"
      },
      "additionalContracts": [],
      "isFixedGasLimit": false
    }
  ],
  "receipts": [
    {
      "status": "0x1",
      "cumulativeGasUsed": "0x919781",
      "logs": [],
      "logsBloom": "0x00000000000000000000000000000000000000000000000000000000000000000000000000000000000000000000000000000000000000000000000000000000000000000000000000000000000000000000000000000000000000000000000000000000000000000000000000000000000000000000000000000000000000000000000000000000000000000000000000000000000000000000000000000000000000000000000000000000000000000000000000000000000000000000000000000000000000000000000000000000000000000000000000000000000000000000000000000000000000000000000000000000000000000000000000000000",
      "type": "0x2",
      "transactionHash": "0x440b6e3509fe8391d5d2d837b87ab0e4821d10e1824015af44632872957c1aca",
      "transactionIndex": "0x39",
      "blockHash": "0xbb37bc61a5bbd7f12565ab4cb9d7fd617bc6bb2d71a59a9cbfef0b2b9fb7d148",
      "blockNumber": "0x6c3292",
      "gasUsed": "0xf72d1",
      "effectiveGasPrice": "0x8a32aaa",
      "from": "0x5c89102bcbf5fa85f9aec152b0a3ef89634decb5",
      "to": "0x4e59b44847b379578588920ca78fbf26c0b4956c",
      "contractAddress": null
    },
    {
      "status": "0x1",
      "cumulativeGasUsed": "0x92b551",
      "logs": [
        {
          "address": "0xbcddc15adbe087a75526c0b7273fcdd27be9dd18",
          "topics": [
            "0x8c5be1e5ebec7d5bd14f71427d1e84f3dd0314c0f7b2291e5b200ac8c7c3b925",
            "0x0000000000000000000000005c89102bcbf5fa85f9aec152b0a3ef89634decb5",
            "0x000000000000000000000000000000000022d473030f116ddee9f6b43ac78ba3"
          ],
          "data": "0xffffffffffffffffffffffffffffffffffffffffffffffffffffffffffffffff",
          "blockHash": "0xbb37bc61a5bbd7f12565ab4cb9d7fd617bc6bb2d71a59a9cbfef0b2b9fb7d148",
          "blockNumber": "0x6c3292",
          "transactionHash": "0xb7c3c28d15ba499412de8ca11ece3e51a0ff1e5c7c3a6a4870e18ecf1b6fb907",
          "transactionIndex": "0x3b",
          "logIndex": "0x55",
          "removed": false
        }
      ],
      "logsBloom": "0x00000000000000000000000020000000000000000000000000000000000000000000000000000000000000000000000000000000800000000000000000200000000000000000000000004000000000000000200010000800000000000000000000000000000000000000000000000000000000004000000000000000000000000000000000000000000000000000000000000000000000000000000040000000020000000000000000000000000000000400000000000000000000000000000000000000000000000000000000000000000000000000000000000000000000000010000000000000000000000000000000000000000000000000000000000000",
      "type": "0x2",
      "transactionHash": "0xb7c3c28d15ba499412de8ca11ece3e51a0ff1e5c7c3a6a4870e18ecf1b6fb907",
      "transactionIndex": "0x3b",
      "blockHash": "0xbb37bc61a5bbd7f12565ab4cb9d7fd617bc6bb2d71a59a9cbfef0b2b9fb7d148",
      "blockNumber": "0x6c3292",
      "gasUsed": "0xb5c4",
      "effectiveGasPrice": "0x8a32aaa",
      "from": "0x5c89102bcbf5fa85f9aec152b0a3ef89634decb5",
      "to": "0xbcddc15adbe087a75526c0b7273fcdd27be9dd18",
      "contractAddress": null
    },
    {
      "status": "0x1",
      "cumulativeGasUsed": "0x93701b",
      "logs": [
        {
          "address": "0x000000000022d473030f116ddee9f6b43ac78ba3",
          "topics": [
            "0xda9fa7c1b00402c17d0161b249b1ab8bbec047c5a52207b9c112deffd817036b",
            "0x0000000000000000000000005c89102bcbf5fa85f9aec152b0a3ef89634decb5",
            "0x000000000000000000000000bcddc15adbe087a75526c0b7273fcdd27be9dd18",
            "0x0000000000000000000000001b1c77b606d13b09c84d1c7394b96b147bc03147"
          ],
          "data": "0x000000000000000000000000ffffffffffffffffffffffffffffffffffffffff0000000000000000000000000000000000000000000000000000ffffffffffff",
          "blockHash": "0xbb37bc61a5bbd7f12565ab4cb9d7fd617bc6bb2d71a59a9cbfef0b2b9fb7d148",
          "blockNumber": "0x6c3292",
          "transactionHash": "0x12a14f51e2f5f0e21004acdfba8c064248c1f97bbdaccb26931a9c03aef6fa19",
          "transactionIndex": "0x3c",
          "logIndex": "0x56",
          "removed": false
        }
      ],
      "logsBloom": "0x00010000000000000000000020000000000000000000000000000000000000000000000000000040000000000000000000000000000000000000000000080000000000000000000000000000000000000000000010000000000000000000000000000000000000020000000000000000000000000000000000000000000000000020000000000000000000000000000000000000000000002000000040000000000000000000000000000000000000000000000000000000000000080020000000000000000000000000000000000000000000000000000040000000000000000000000000000000000000000000000000800000000008000000000000000400",
      "type": "0x2",
      "transactionHash": "0x12a14f51e2f5f0e21004acdfba8c064248c1f97bbdaccb26931a9c03aef6fa19",
      "transactionIndex": "0x3c",
      "blockHash": "0xbb37bc61a5bbd7f12565ab4cb9d7fd617bc6bb2d71a59a9cbfef0b2b9fb7d148",
      "blockNumber": "0x6c3292",
      "gasUsed": "0xbaca",
      "effectiveGasPrice": "0x8a32aaa",
      "from": "0x5c89102bcbf5fa85f9aec152b0a3ef89634decb5",
      "to": "0x000000000022d473030f116ddee9f6b43ac78ba3",
      "contractAddress": null
    },
    {
      "status": "0x1",
      "cumulativeGasUsed": "0x9425f4",
      "logs": [
        {
          "address": "0x3ef4a137b3470f0b8ffe6391edb72d78a3ac1e63",
          "topics": [
            "0x8c5be1e5ebec7d5bd14f71427d1e84f3dd0314c0f7b2291e5b200ac8c7c3b925",
            "0x0000000000000000000000005c89102bcbf5fa85f9aec152b0a3ef89634decb5",
            "0x000000000000000000000000000000000022d473030f116ddee9f6b43ac78ba3"
          ],
          "data": "0xffffffffffffffffffffffffffffffffffffffffffffffffffffffffffffffff",
          "blockHash": "0xbb37bc61a5bbd7f12565ab4cb9d7fd617bc6bb2d71a59a9cbfef0b2b9fb7d148",
          "blockNumber": "0x6c3292",
          "transactionHash": "0xce94ee446453e5515045b5f0fc79ac21f0dc3245fa2d02516cee6a3d2d8ff7fe",
          "transactionIndex": "0x3d",
          "logIndex": "0x57",
          "removed": false
        }
      ],
      "logsBloom": "0x00000000000000000000200020040000000000000000000000000000000000000000000000000000000000000000000000000000800000000000000000200000000000000000000000004000000000000000000010000800000000000000000000000000000000000000000000000000000000000000000000000000000000000000000000000000000000000000000000000000000000000000000040000000020000000000000000000800000000000000000000000000000000000000000000000000000000000000000000000000000000000000000000000000000000000010000000000000000000000000000000000000000000000000000000000000",
      "type": "0x2",
      "transactionHash": "0xce94ee446453e5515045b5f0fc79ac21f0dc3245fa2d02516cee6a3d2d8ff7fe",
      "transactionIndex": "0x3d",
      "blockHash": "0xbb37bc61a5bbd7f12565ab4cb9d7fd617bc6bb2d71a59a9cbfef0b2b9fb7d148",
      "blockNumber": "0x6c3292",
      "gasUsed": "0xb5d9",
      "effectiveGasPrice": "0x8a32aaa",
      "from": "0x5c89102bcbf5fa85f9aec152b0a3ef89634decb5",
      "to": "0x3ef4a137b3470f0b8ffe6391edb72d78a3ac1e63",
      "contractAddress": null
    },
    {
      "status": "0x1",
      "cumulativeGasUsed": "0x94e0be",
      "logs": [
        {
          "address": "0x000000000022d473030f116ddee9f6b43ac78ba3",
          "topics": [
            "0xda9fa7c1b00402c17d0161b249b1ab8bbec047c5a52207b9c112deffd817036b",
            "0x0000000000000000000000005c89102bcbf5fa85f9aec152b0a3ef89634decb5",
            "0x0000000000000000000000003ef4a137b3470f0b8ffe6391edb72d78a3ac1e63",
            "0x0000000000000000000000001b1c77b606d13b09c84d1c7394b96b147bc03147"
          ],
          "data": "0x000000000000000000000000ffffffffffffffffffffffffffffffffffffffff0000000000000000000000000000000000000000000000000000ffffffffffff",
          "blockHash": "0xbb37bc61a5bbd7f12565ab4cb9d7fd617bc6bb2d71a59a9cbfef0b2b9fb7d148",
          "blockNumber": "0x6c3292",
          "transactionHash": "0x5f7249167c4532ab384fa10460296162dde86c9447846d566ccd2286c8d25d8d",
          "transactionIndex": "0x3e",
          "logIndex": "0x58",
          "removed": false
        }
      ],
      "logsBloom": "0x00010000000000000000000020000000000000000000000000000000000000000000000000000040000000000000400000000000000000000000000000080000000000000000000000000000000000000000000010100000000000000000000000000000000000000000000000000000000020000000000000000000000000000020000000000000000000000000000000000000000000000000000040000000000000000000000000000000000000000000000000000000000000080020000000000000000000000000000000000000000000000000000040000000000000000000000000000000000000000000000000800000000000000000000000000400",
      "type": "0x2",
      "transactionHash": "0x5f7249167c4532ab384fa10460296162dde86c9447846d566ccd2286c8d25d8d",
      "transactionIndex": "0x3e",
      "blockHash": "0xbb37bc61a5bbd7f12565ab4cb9d7fd617bc6bb2d71a59a9cbfef0b2b9fb7d148",
      "blockNumber": "0x6c3292",
      "gasUsed": "0xbaca",
      "effectiveGasPrice": "0x8a32aaa",
      "from": "0x5c89102bcbf5fa85f9aec152b0a3ef89634decb5",
      "to": "0x000000000022d473030f116ddee9f6b43ac78ba3",
      "contractAddress": null
    },
    {
      "status": "0x1",
      "cumulativeGasUsed": "0x95bc45",
      "logs": [
        {
          "address": "0x8c4bcbe6b9ef47855f97e675296fa3f6fafa5f1a",
          "topics": [
            "0xdd466e674ea557f56295e2d0218a125ea4b4f0f6f3307b95f85e6110838d6438",
            "0x343160db1739c70ebafff19b697e4ec25650409285d60234e264253de903bc33",
            "0x0000000000000000000000003ef4a137b3470f0b8ffe6391edb72d78a3ac1e63",
            "0x000000000000000000000000bcddc15adbe087a75526c0b7273fcdd27be9dd18"
          ],
          "data": "0x0000000000000000000000000000000000000000000000000000000000000bb8000000000000000000000000000000000000000000000000000000000000003c00000000000000000000000071de7ff95ab22f5fce069330f867efc9893b80c000000000000000000000000000000000000000010000000000000000000000000000000000000000000000000000000000000000000000000000000000000000",
          "blockHash": "0xbb37bc61a5bbd7f12565ab4cb9d7fd617bc6bb2d71a59a9cbfef0b2b9fb7d148",
          "blockNumber": "0x6c3292",
          "transactionHash": "0x69b2ebcae53189e95d070863fe04ce1b9e9e119cca17c1ccbafabf663a2fb655",
          "transactionIndex": "0x3f",
          "logIndex": "0x59",
          "removed": false
        }
      ],
      "logsBloom": "0x00000000000000000000000000000000000000000000000000000000000000000000000000000000000000000000400000000000000000000000000000000000000000000000000000000000000000000000000000100000000820000000000000000000010000020000000000000000000020000000000000000000000000000000000000000008000000000000000000000001000000002000000000200000000000000000000000000000000000000000000000000000000000000000000000000000000000000000000000800000000020000000000000000000000000000000000000200000000000000000000000000000000008000000000000000000",
      "type": "0x2",
      "transactionHash": "0x69b2ebcae53189e95d070863fe04ce1b9e9e119cca17c1ccbafabf663a2fb655",
      "transactionIndex": "0x3f",
      "blockHash": "0xbb37bc61a5bbd7f12565ab4cb9d7fd617bc6bb2d71a59a9cbfef0b2b9fb7d148",
      "blockNumber": "0x6c3292",
      "gasUsed": "0xdb87",
      "effectiveGasPrice": "0x8a32aaa",
      "from": "0x5c89102bcbf5fa85f9aec152b0a3ef89634decb5",
      "to": "0x1b1c77b606d13b09c84d1c7394b96b147bc03147",
      "contractAddress": null
    }
  ],
  "libraries": [],
  "pending": [],
  "returns": {
    "hookContract": {
      "internal_type": "contract Hook",
      "value": "0x71dE7Ff95ab22f5fce069330F867EFC9893b80c0"
    }
  },
  "timestamp": 1731786589,
  "chain": 11155111,
  "commit": "7e11e18"
}